:030000000201E812
:0100030032CA
:03000B000200F8F8
:0100130032BA
:01001B0032B2
:0100230032AA
:03002B0002015E71
:10002E00C00078B10000D8FCD00022C000C0017919
:10003E002D78A6D8FED9FADAF6D001D00022D296C3
:10004E0012002EC29622A2E792B5A2E692B4A2E5C3
:10005E0092B3A2E492B212004C12002EA2E392B519
:10006E00A2E292B4A2E192B3A2E092B212004C22AA
:10007E00D294020054C294020054C296C2957433B4
:10008E0012008374331200837432120083742812A8
:10009E000083740C1200837401120083C0027A0272
:1000AE00120039D00222E493600612007EA380F67D
:1000BE002244404480020083C0E0E8C4540F443020
:1000CE0012007EE8540F443012007ED0E0225374AA
:1000DE006174653A00E58954F04401F589758CEA3E
:1000EE00758AE8D2A9D28CD2AF22C28C758CEA75F1
:1000FE008AFCD28C200102B2B7200602B2B72007CA
:10010E0002B2B7C0E0C0D0E535B53704D28080105A
:10011E00E535B53809E536B53806D2808002C2809D
:10012E00E5362401F536E536B5390B7400F536E5BE
:10013E0035B53802C280D0D0D0E03275C80075CB4C
:10014E00A975CA9AE4F530F531D2ADD2CAD2AF2232
:10015E00C2CFB2B6C0E0C0D00530E5307002053176
:10016E00E530B4E870E531B4036BD200E4F530F558
:10017E0031E5342403F53420010FE53A2401D4F59A
:10018E003AB40151B201753A0020060FE53A240146
:10019E00D4F53AB4013FB206753A0020070FE53A9E
:1001AE002401D4F53AB4032DB207753A002002119A
:1001BE00E5332401D4F533B4101BB204B202753307
:1001CE0000200311E5332401D4F533B41507B2052D
:1001DE00B203753300D0D0D0E03275817F75C10087
:1001EE001200E3120149120088C0E07401141200DB
:1001FE00C1D0E0C083C082C0E09000DC1200B4D059
:10020E00E0D082D083D2007533007532007536008F
:10021E0085373575370075380175390A753A0075A9
:10022E00340020C529C0027A32120039D00220C50E
:10023E001D30C5FDC28CE4F530F5317533007532D5
:10024E0000753600853735753A00D28C8003300044
:10025E00D1C200E532B40026853735C0E0740714EC
:10026E001200C1D0E0C00078001200C6D000B281EA
:10027E002082AF3082FDB201753201020230B281AE
:10028E00B40127C0E07407141200C1D0E0C000789A
:10029E00011200C6D0008539357496C395345007C7
:1002AE00753202B206B202020230B40223C0E0740A
:1002BE0007141200C1D0E0C00078021200C6D000B0
:1002CE00853835200407B281753203B2060202303A
:1002DE00B281B40327C0E07407141200C1D0E0C08D
:1002EE000078031200C6D00085393574DCC395340E
:1002FE005007753204B203B206020230B40423C0B2
:10030E00E07407141200C1D0E0C00078041200C6D9
:10031E00D000B287853835200505753205B2060244
:10032E000230B287B40523C0E07407141200C1D0A6
:10033E00E0C00078051200C6D000853735E5347967
:0D034E0060C3995005753200B207020230FD
:00000001FF
