:030000000201A357
:0100030032CA
:03000B000200F1FF
:0100130032BA
:01001B0032B2
:0100230032AA
:03002B0002015D72
:10002E00C00078B10000D8FCD00022C000C0017919
:10003E002D78A6D8FED9FADAF6D001D00022D296C3
:10004E0012002EC29622A2E792B5A2E692B4A2E5C3
:10005E0092B3A2E492B212004C12002EA2E392B519
:10006E00A2E292B4A2E192B3A2E092B212004C22AA
:10007E00D294020054C294020054C296C2957433B4
:10008E0012008374331200837432120083742812A8
:10009E000083740C1200837401120083C0027A0272
:1000AE00120039D00222E493600612007EA380F67D
:1000BE002244404480020083C0E0E8C4540F443020
:1000CE0012007EE8540F443012007ED0E022E58903
:1000DE0054F04401F589758CEA758AE8D2A9D28C60
:1000EE00D2AF22C28C758CEA758AFCD28CC0E0C06D
:1000FE00D0E53AB40105B2B702010EE53CB40100F9
:10010E00E535B53705D28102012CB5380AE536B58D
:10011E00380CD28102012CE536B53902C281E536A2
:10012E002401D4F536B4640DE535B537028002C22C
:10013E00817400F536D0D0D0E03275C80075CB533F
:10014E0075CA34E4F530F531D2ADD2CAD2AF22C27F
:10015E00CFC0E0C0D00530E53070020531E530B4D7
:10016E00F42EE531B40129D200E53AB40111E53B94
:10017E002401F53BB4020D7400F53AF53BC2B7E528
:10018E003CB40100E4F530F531E5332401D4F53308
:10019E00D0D0D0E03275817F75C1001200DC120123
:1001AE0048120088D200753300753200753600850E
:1001BE003935753700753814753964753A00753BE5
:1001CE0000753C00753D0020C532C0027A32120027
:1001DE0039D00220C52630C5FDC28CE4F530F5318C
:1001EE00753300753200753600853735753A0075F2
:1001FE003B00753C00753D00D28C80033000C8C2B8
:10020E0000E532B4001E853735208315C0027A32E0
:10021E00120039D0022083093083FD753201753A00
:10022E00010201D5B401138539357533007496C3B7
:10023E00953450037532020201D5B402108538355B
:10024E00743CC3953350037532030201D5B40313C6
:10025E0085393575330074DCC3953450037532041B
:10026E000201D5B40410853835742DC3953350036F
:10027E007532050201D5B405108537357533007416
:0C028E003CC3953450037532000201D5CA
:00000001FF
