:0300000002017585
:0100030032CA
:03000B000200F1FF
:0100130032BA
:01001B0032B2
:0100230032AA
:03002B0002014689
:10002E00C00078B10000D8FCD00022C000C0017919
:10003E002D78A6D8FED9FADAF6D001D00022D296C3
:10004E0012002EC29622A2E792B5A2E692B4A2E5C3
:10005E0092B3A2E492B212004C12002EA2E392B519
:10006E00A2E292B4A2E192B3A2E092B212004C22AA
:10007E00D294020054C294020054C296C2957433B4
:10008E0012008374331200837432120083742812A8
:10009E000083740C1200837401120083C0027A0272
:1000AE00120039D00222E493600612007EA380F67D
:1000BE002244404480020083C0E0E8C4540F443020
:1000CE0012007EE8540F443012007ED0E022E58903
:1000DE0054F04401F589758CEA758AE8D2A9D28C60
:1000EE00D2AF22C28C758CEA758AFCD28CC0E0C06D
:1000FE00D0E535B53705C28002011BB5380AE536A5
:10010E00B5380AC28002011BE536B53900E5362442
:10011E0001D4F536B46405D280753600D0D0D0E067
:10012E00B2B73275C80075CB5375CA34E4F530F5E5
:10013E0031D2ADD2CAD2AF22C2CFB2B6C0E0C0D099
:10014E000530E53070020531E530B4F415E531B413
:10015E000110D200B28EE4F530F531E5332401D42E
:10016E00F533D0D0D0E03275817F75C1001200DC3E
:10017E00120131120088D2007533007532007536C7
:10018E0000853735753700753814753964753A0042
:10019E00753B0020C52CC0027A32120039D00220E5
:1001AE00C52030C5FDC28CE4F530F53175330075D0
:1001BE003200753600853735753A00753B00D28CA6
:1001CE0080033000CEC200E532B4001B85373520E7
:1001DE008312C0027A32120039D002208306308395
:1001EE00FD7532010201A1B4011385393575330055
:1001FE007496C3953450037532020201A1B40210F5
:10020E00853835743CC3953350037532030201A112
:10021E00B4031385393575330074DCC3953450033C
:10022E007532040201A1B40410853835742DC395BE
:10023E003350037532050201A1B4051085373575AB
:0F024E003300743CC3953450037532000201A194
:00000001FF
