:030000000201906A
:0100030032CA
:03000B000200F1FF
:0100130032BA
:01001B0032B2
:0100230032AA
:03002B0002014689
:10002E00C00078B10000D8FCD00022C000C0017919
:10003E002D78A6D8FED9FADAF6D001D00022D296C3
:10004E0012002EC29622A2E792B5A2E692B4A2E5C3
:10005E0092B3A2E492B212004C12002EA2E392B519
:10006E00A2E292B4A2E192B3A2E092B212004C22AA
:10007E00D294020054C294020054C296C2957433B4
:10008E0012008374331200837432120083742812A8
:10009E000083740C1200837401120083C0027A0272
:1000AE00120039D00222E493600612007EA380F67D
:1000BE002244404480020083C0E0E8C4540F443020
:1000CE0012007EE8540F443012007ED0E022E58903
:1000DE0054F04401F589758CEA758AE8D2A9D28C60
:1000EE00D2AF22C28C758CEA758AFCD28CC0E0C06D
:1000FE00D0E535B53705C28002011BB5380AE536A5
:10010E00B5380AC28002011BE536B53900E5362442
:10011E0001D4F536B46405D280753600D0D0D0E067
:10012E00B2B73275C80075CB5375CA34E4F530F5E5
:10013E0031D2ADD2CAD2AF22C2CFC0E0C0D00530CC
:10014E00E53070020531E530B4F432E531B4012DFD
:10015E00D200B28EE53AB40113D2B7E53B2401F5D5
:10016E003BB4030D7400F53AF53BC2B7E53CB40160
:10017E0080E4F530F531E5332401D4F533D0D0D019
:10018E00E03275817F75C1001200DC120131120060
:10019E0088D2007533007532007536008537357597
:1001AE003700753814753964753A01753B00753C26
:1001BE0000753D0020C532C0027A32120039D002DD
:1001CE0020C52630C5FDC28CE4F530F531753300FF
:1001DE00753200753600853735753A00753B0075FA
:1001EE003C00753D00D28C80033000C8C200E53261
:1001FE00B4001B853735208312C0027A32120039C3
:10020E00D0022083063083FD7532010201C2B40193
:10021E00138539357533007496C395345003753292
:10022E00020201C2B40210853835743CC3953350B6
:10023E00037532030201C2B40313853935753300D9
:10024E0074DCC3953450037532040201C2B4041039
:10025E00853835742DC3953350037532050201C2AE
:10026E00B40510853735753300743CC3953450038F
:06027E007532000201C20E
:00000001FF
