:0300000002017684
:0100030032CA
:03000B000200F1FF
:0100130032BA
:01001B0032B2
:0100230032AA
:03002B0002014788
:10002E00C00078B10000D8FCD00022C000C0017919
:10003E002D78A6D8FED9FADAF6D001D00022D296C3
:10004E0012002EC29622A2E792B5A2E692B4A2E5C3
:10005E0092B3A2E492B212004C12002EA2E392B519
:10006E00A2E292B4A2E192B3A2E092B212004C22AA
:10007E00D294020054C294020054C296C2957433B4
:10008E0012008374331200837432120083742812A8
:10009E000083740C1200837401120083C0027A0272
:1000AE00120039D00222E493600612007EA380F67D
:1000BE002244404480020083C0E0E8C4540F443020
:1000CE0012007EE8540F443012007ED0E022E58903
:1000DE0054F04401F589758CEA758AE8D2A9D28C60
:1000EE00D2AF22C28C758CEA758AFCD28CC0E0C06D
:1000FE00D0E5362401D4F536E535B53705C2800294
:10010E000124B5380AE536B5380CD280020124E553
:10011E0036B53902D280E536B46402C280D0D0D072
:10012E00E0B2B73275C80075CB5375CA34E4F530FA
:10013E00F531D2ADD2CAD2AF22C2CFB2B6C0E0C074
:10014E00D00530E53070020531E530B4F415E531F7
:10015E00B40110D200B28EE4F530F531E53324014E
:10016E00D4F533D0D0D0E03275817F75C100120046
:10017E00DC120132120088D2007533007532007520
:10018E00360085373575370075381475396420C5D6
:10019E0026C0027A32120039D00220C51A30C5FDAF
:1001AE00C28CE4F530F531753300753200753600CA
:1001BE00853735D28C80033000D4C200E532B400CE
:1001CE001B853735208312C0027A32120039D002D5
:1001DE002083063083FD75320102019CB401138524
:1001EE0039357533007496C3953450037532020257
:1001FE00019CB40210853835743CC3953350037599
:10020E00320302019CB4031385393575330074DC57
:10021E00C39534500375320402019CB40410853822
:10022E0035742DC39533500375320502019CB40508
:10023E0010853735753300743CC3953450037532D1
:04024E000002019C0D
:00000001FF
