:0300000002059660
:0100030032CA
:03000B0002045399
:0100130032BA
:01001B0032B2
:0100230032AA
:03002B000204C606
:10002E00C00078B10000D8FCD00022C000C0017919
:10003E002D78A6D8FED9FADAF6D001D00022D296C3
:10004E0012002EC29622A2E792B5A2E692B4A2E5C3
:10005E0092B3A2E492B212004C12002EA2E392B519
:10006E00A2E292B4A2E192B3A2E092B212004C22AA
:10007E00D294020054C294020054C296C2957433B4
:10008E0012008374331200837432120083742812A8
:10009E000083740C1200837401120083C0027A0272
:1000AE00120039D00222E493600612007EA380F67D
:1000BE002244404480020083C0E0E8C4540F443020
:0E00CE0012007EE8540F443012007ED0E02273
:1000DC00C0E0C0D0C000C001C002E4F53BF53CF567
:1000EC003DF53EF53F7A20E536A2E779047833E614
:1000FC0033F608D9FA7905783BE636D4F608D9F9FF
:10010C00DAE5D002D001D000D0D0D0E022C0E0C0DF
:10011C00D0C000C001C002E4F53BF53CF53DF53E16
:10012C00F53F7A20E536A2E779047833E633F60812
:10013C00D9FA7905783BC0D0E6243320E70224D0E5
:10014C0020E30224FDD0D033F608D9EADAD6D00267
:10015C00D001D000D0D0D0E022C0E0C0D0C000C0D0
:10016C0001C0027A207905C3783FE613C0D030E78E
:10017C000224D030E30224FDF618D0D0D9EC790457
:10018C007836E613F618D9FADADBD002D001D000B3
:10019C00D0D0D0E022C0E0C0D0E5332537F533E530
:1001AC00343538F534E5353539F535E536353AF548
:1001BC0036D0D0D0E022C0E0C0D0C3E5339537F5BF
:1001CC0033E5349538F534E5359539F535E536951F
:1001DC003AF536D0D0D0E022C0E0C0D0C3E533959C
:1001EC0037E5349538E5359539E536953A9209D0A9
:1001FC00D0D0E022C0E0C0D0C3E5379533E53895C8
:10020C0034E5399535E53A95369209D0D0D0E022CF
:10021C00C0E0C0D0C209C3E53795337014E53895FA
:10022C0034700EE53995357008E53A95367002D282
:10023C0009D0D0D0E02212021C20090302020022B5
:10024C0012021C2009030201E422C0E0C0F0C0D05D
:10025C00C000C001C002C003E5338537F0A4F8A983
:10026C00F0E5348537F0A429F9E435F0FAE5338567
:10027C0038F0A429F9E5F03AFAE433FBE535853793
:10028C00F0A42AFAE5F03BFBE5348538F0A42AFA11
:10029C00E5F03BFBE5338539F0A42AFAE5F03BFBAE
:1002AC00E5368537F0A42BFBE5358538F0A42BFB20
:1002BC00E5348539F0A42BFBE533853AF0A42BFB10
:1002CC008B368A3589348833D003D002D001D000E4
:1002DC00D0D0D0F0D0E022C0E0C0D0C000C001C06F
:1002EC0002C003C0047C20E4F8F9FAFBC3E5333305
:1002FC00F533E53433F534E53533F535E53633F59B
:10030C0036E833F8E933F9EA33FAEB33FBC3E89513
:10031C0037E99538EA9539EB953A4013E89537F873
:10032C00E99538F9EA9539FAEB953AFB433301DC58
:10033C00BBD004D003D002D001D000D0D0D0E0226A
:10034C005348494554204D414E4E4E4E20202020BE
:10035C000072657374617274696E672E2E2E202084
:10036C0020005265666C6F7720636F6D706C6574DE
:10037C00652100733A787878732020787878432058
:10038C0078787800723A7878787320207878784387
:10039C0020202020006F66660072756E003A0020E7
:1003AC0020736F616B20207265666C6F7720200064
:1003BC00202028757029202028646F776E29202032
:1003CC000074696D653A2078787878732020202045
:1003DC00200074656D703A2078787878432020205E
:1003EC0020200078787878732078787878432020EB
:1003FC006F6B3F0073657420746F20636F6E74694C
:10040C006E75652000202020202020202020202018
:10041C00202020202000200053746174653A00488D
:10042C00656C6C6F2C20576F726C64210D0A000D7B
:10043C000A00E58954F04401F589758CEA758AE85F
:10044C00D2A9D28CD2AF22C28C758CEA758AFCD21E
:10045C008C200102B2B7200602B2B7200702B2B755
:10046C00200802B2B7C0E0C0D0E546B54804D2803F
:10047C008010E546B54909E547B54906D2808002AA
:10048C00C280E5472401F547E547B54A0B7400F5F2
:10049C0047E546B54902C280D0D0D0E032C0E0C0BA
:1004AC00D075C80075CBA975CA9AE4F530F531D270
:1004BC00ADD2CAD2AFD0D0D0E022C2CFB2B6C0E05B
:1004CC00C0D00530E53070020531E530B4E807E501
:1004DC0031B40302800302056DD200E4F530F5312E
:1004EC00E544B4990DE4D4F544E5452401D4F5452F
:1004FC0080052401D4F54420010FE54B2401D4F5EB
:10050C004BB4015DB201754B0020060FE54B240185
:10051C00D4F54BB4014BB206754B0020070FE54BDD
:10052C002401D4F54BB40339B207754B00300217D4
:10053C00E540B4990DE4D4F540E5412401D4F541EE
:10054C00801F2401D4F540300317E542B4990DE423
:10055C00D4F542E5432401D4F54380052401D4F5B8
:10056C0042D0D0D0E032C2CA75C83075CBFF75CA44
:10057C00F4D2CA759852223099FDC299F59922E4A9
:10058C00936006120583A380F62275817F75C100E6
:10059C0012043E1204A9120088C0E0740114120067
:1005AC00C1D0E0C083C082C0E09004241200B4D05B
:1005BC00E0D082D083C204D200C202C203754100D3
:1005CC0075404075430075420075320075470085D3
:1005DC004846754800754901754A0A754B007545C2
:1005EC00017544407551017550507553007552603A
:1005FC007555027554207557007556458017C28C79
:10060C00E4F530F531753200754700854846754B79
:10061C0000D28C80033000E4C200C0E074011412DC
:10062C0000BFD0E0C000A8451200C6D000C0E074E6
:10063C0003141200BFD0E0C000A8441200C6D000C2
:10064C00C0E07406141200BFD0E0C000A841120034
:10065C00C6D000C0E07408141200BFD0E0C000A8DF
:10066C00401200C6D000C0E0740B141200BFD0E0E2
:10067C00C000A8431200C6D000C0E0740D141200D4
:10068C00BFD0E0C000A8421200C6D000C2AF120515
:10069C0072E54412058390043B12058BC0027A016B
:1006AC00120039D0021204A9E532B400778548460D
:1006BC00C0E07407141200C1D0E0C0007800120032
:1006CC00C6D000B2812082083082FDB201753201A1
:1006DC00020608C0E07401141200C1D0E0C083C04F
:1006EC0082C0E090034C1200B4D0E0D082D083C022
:1006FC00E07401141200BFD0E0C083C082C0E0904F
:10070C00035D1200B4D0E0D082D0837C0FC0027A9B
:10071C00FF120039D002C0027AFF120039D002DC7D
:10072C00EC02059620820FC0027A32120039D002F8
:10073C0020820330829DB40132D203C0E0740714CE
:10074C001200C1D0E0C00078011200C6D000854A6A
:10075C0046E545B55112E550C39544500B75320230
:10076C00B206754100754050020608B40238D20238
:10077C00C0E07407141200C1D0E0C000780212006F
:10078C00C6D000854946E541B55318E540B552132E
:10079C00C202754100754000753203B20675450200
:1007AC00754410020608B281B40330C0E07407141B
:1007BC001200C1D0E0C00078031200C6D000854AF8
:1007CC0046E545B55512E554C39544500B753204B6
:1007DC00B206754100754035020608B40438C0E015
:1007EC007407141200C1D0E0C00078041200C6D007
:1007FC0000D202854946E541B55718E540B5561378
:10080C00753205C202754100754000B2077545008E
:10081C00754465020608B287B40523C0E07407145A
:10082C001200C1D0E0C00078051200C6D000854887
:10083C0046E545B400A2E5447B60C39B5003020629
:10084C0008C0E07401141200C1D0E0C083C082C0A3
:10085C00E090036E1200B4D0E0D082D083C0E0747C
:10086C0001141200BFD0E0C083C082C0E090035DD1
:10087C001200B4D0E0D082D083753200C0027AFF6F
:10088C00120039D002C0027AFF120039D002C00225
:10089C007AFF120039D002C0027AFF120039D0025E
:1008AC00C0027AFF120039D002C0027AFF1200395E
:1008BC00D002C0027AFF120039D0027A09B208C005
:0F08CC00027AFF120039D002DAF3B20802059661
:00000001FF
