:03000000020357A1
:10000300C00078B10000D8FCD00022C000C0017944
:100013002D78A6D8FED9FADAF6D001D00022D296EE
:10002300120003C29622A2E792B5A2E692B4A2E519
:1000330092B3A2E492B2120021120003A2E392B59A
:10004300A2E292B4A2E192B3A2E092B21200212200
:10005300D294020029C294020029C296C295743335
:100063001200587433120058743212005874281254
:100073000058740C1200587401120058C0027A021E
:1000830012000ED00222E4936006120053A380F6FE
:100093002244404480020058C0E0E8C4540F443076
:0E00A300120053E8540F4430120053D0E022F4
:1000B100C0E0C0D0C000C001C002E4F53CF53DF590
:1000C1003EF53FF5407A20E537A2E779047834E63A
:1000D10033F608D9FA7905783CE636D4F608D9F929
:1000E100DAE5D002D001D000D0D0D0E022C0E0C00B
:1000F100D0C000C001C002E4F53CF53DF53EF53F3E
:10010100F5407A20E537A2E779047834E633F6083A
:10011100D9FA7905783CC0D0E6243320E70224D00F
:1001210020E30224FDD0D033F608D9EADAD6D00292
:10013100D001D000D0D0D0E022C0E0C0D0C000C0FB
:1001410001C0027A207905C37840E613C0D030E7B8
:100151000224D030E30224FDF618D0D0D9EC790482
:100161007837E613F618D9FADADBD002D001D000DD
:10017100D0D0D0E022C0E0C0D0E5342538F534E558
:10018100353539F535E536353AF536E537353BF56B
:1001910037D0D0D0E022C0E0C0D0C3E5349538F5E7
:1001A10034E5359539F535E536953AF536E5379542
:1001B1003BF537D0D0D0E022C0E0C0D0C3E53495C4
:1001C10038E5359539E536953AE537953B9200D0D6
:1001D100D0D0E022C0E0C0D0C3E5389534E53995F0
:1001E10035E53A9536E53B95379200D0D0D0E022FF
:1001F100C0E0C0D0C200C3E53895347014E539952C
:1002010035700EE53A95367008E53B95377002D2A8
:1002110000D0D0D0E0221201F12000030201D5224A
:100221001201F12000030201B922C0E0C0F0C0D0E8
:10023100C000C001C002C003E5348538F0A4F8A9AC
:10024100F0E5358538F0A429F9E435F0FAE534858F
:1002510039F0A429F9E5F03AFAE433FBE5368538BB
:10026100F0A42AFAE5F03BFBE5358539F0A42AFA3A
:10027100E5F03BFBE534853AF0A42AFAE5F03BFBD7
:10028100E5378538F0A42BFBE5368539F0A42BFB47
:10029100E535853AF0A42BFBE534853BF0A42BFB37
:1002A1008B378A3689358834D003D002D001D0000B
:1002B100D0D0D0F0D0E022C0E0C0D0C000C001C09A
:1002C10002C003C0047C20E4F8F9FAFBC3E534332F
:1002D100F534E53533F535E53633F536E53733F5C0
:1002E10037E833F8E933F9EA33FAEB33FBC3E8953E
:1002F10038E99539EA953AEB953B4013E89538F89A
:10030100E99539F9EA953AFAEB953BFB433401DC7F
:10031100BBD004D003D002D001D000D0D0D0E02295
:10032100D2A2C2A322C0E079007A08E833F892A1F0
:10033100D2A3A2A2E933F9C2A3DAF0D0E0C2CA750E
:10034100C83075CBFF75CAF4D2CA7598522230995C
:10035100FDC299F5992275817F75C10012033E1284
:10036100032112005DC2A0780112032678801203D6
:1003710026E95403F53178551203268930780112A4
:1003810003267890120326E95403F53378551203B6
:10039100268932D2A01203C9C0E0740A1412009651
:1003A100D0E0C000A83012009BD000C0027A9612A3
:1003B100000ED002C0027A9612000ED002C0027A5C
:1003C100C812000ED002809D8530348531357536D6
:1003D100007537007538507539C3753A00753B00A3
:1003E10012022B7538FF753903753A00753B0012FF
:1003F10002B8753817753900753A00753B0012015E
:1004010097753829753900753A00753B001202B8A5
:10041100853430853531853234853335753600750F
:1004210037007538FF753903753A00753B001202C4
:10043100B8753805753900753A00753B0012022B05
:10044100753811753901753A00753B0012019775C0
:100451003810753927753A00753B0012022B753833
:1004610017753900753A00753B00120197753829E7
:10047100753900753A00753B001202B88534328532
:100481003533853034853135753600753700853221
:1004910038853339753A00753B001201761200B187
:1004A100E53DC4540F443012034FE53D540F443031
:1004B10012034FE53CC4540F443012034FE53C5442
:1004C1000F443012034FC0E0740A14120096D0E0BA
:1004D100C000A83C12009BD000740D12034F740A97
:0404E10012034F2291
:00000001FF
